S016000054696D65725F476F647A696E6E792E737265635C
S11300000C947A000C9499000C9499000C94990027
S11300100C9499000C9499000C9499000C949900F8
S11300200C9465030C941C040C9499000C94990092
S11300300C9499000C9499000C9499000C949900D8
S11300400C9499000C9499000C9499000C949900C8
S11300500C9499000C9499000C9499000C949900B8
S11300600C9499000C9499000C9499000C949900A8
S11300700C9499000C9499000C9499000C94990098
S11300800C9499000C9499000C9499000C94990088
S11300900C9499000C9499000C9499000C94990078
S11300A00C9499000C9499000C9499000C94990068
S11300B00C9499000C9411030C9499000C94200254
S11300C00C9499000C9499000C9499000C94990048
S11300D00C9499000C9499000C9499000C94990038
S11300E00C9499000C9499000C9499000C94990028
S11300F00C94990011241FBECFEFCDBFDFE7DEBF04
S113010010E4A0E0B0E4EAECFAE000E00BBF02C0C7
S113011007900D92A031B107D9F720E4A0E1B0E433
S113012001C01D92A432B207E1F70E94C3030C94EC
S113013063050C940000209119402111ACC020915A
S11301401040223009F4A7C0E0E0F4E030852085B7
S113015025FB222720F934FB882780F990E0880FBB
S1130160991F282B8091164090E0880F991F880FC3
S1130170991F822B8D3031F0843021F0823011F0C0
S11301808B3029F4909115409F5F909315408E30E9
S113019031F0873021F0813011F0883029F48091DA
S11301A015408150809315408091154085307CF036
S11301B08091174090911840019680931740909336
S11301C018408091154085508093154012C080914D
S11301D015408C3F74F4809117409091184001971A
S11301E08093174090931840809115408B5F8093C3
S11301F01540809117409091184099232CF4109247
S11302001740109218402CC080911040811108C0F2
S11302108091174090911840489724F480E003C0DF
S113022080E001C081E0882339F087E190E0809389
S113023017409093184014C090911040913041F4AD
S113024040911740509118404C3351050CF081E017
S1130250882331F08BE390E080931740909318400B
S11302602093164080911040811109C0809117405D
S11302709091184080931340909314400895809176
S11302801040813041F48091174090911840809340
S11302901140909312400895E0E0F4E088E38283F3
S11302A088E0848B858B8BE0838B84898160848B4D
S11302B085898160858B0895E0E2F4E088E081839C
S11302C08583089580911A40882319F0813029F09C
S11302D0089588E080932604089588E08093250497
S11302E0089580912040882369F1E0E4F4E082E0FD
S11302F085832FEF30E792E0215030409040E1F7C2
S113030000C0000086832FE738E391E0215030409D
S11303109040E1F700C0000085832FE73AE196E0C2
S1130320215030409040E1F700C0000086832FEF59
S113033030E782E0215030408040E1F700C0000007
S1130340109220400895CF92DF92EF92FF926901BC
S11303507A01A4E6B0E09B01AC010E945805DC01DF
S1130360CB018C0D9D1DAE1DBF1D0E942205FF906B
S1130370EF90DF90CF9008954F925F926F927F92AB
S11303808F929F92AF92BF92CF92DF92EF92FF92A1
S11303900F931F9329013A01A0E1BEE09B01AC0138
S11303A00E9458054B015C01ACE3B0E0A30192014B
S11303B00E945805860E971EA81EB91EC801B701D3
S11303C028EE33E040E050E00E9427057501640107
S11303D0C21AD30AE40AF50A0F2EFCE38F2E912CDD
S11303E0A12CB12CF02DC701B601A50194010E94E6
S11303F0270529013A01C701B60120E13EE040E0AA
S113040050E00E94270569017A01C301B201A501E8
S113041094010E9427059B01AC01C701B6010E940B
S1130420A3011F910F91FF90EF90DF90CF90BF90A9
S1130430AF909F908F907F906F905F904F900895B2
S11304401F920F920FB60F9211240BB60F924F9278
S11304505F926F927F928F929F92AF92BF92CF9250
S1130460DF92EF92FF922F933F934F935F936F939B
S11304707F938F939F93AF93BF93EF93FF93809159
S11304801040823009F0ABC081E080931B40109291
S11304901A4080911C4090911D40A0911E40B09143
S11304A01F400196A11DB11D80931C4090931D40D7
S11304B0A0931E40B0931F4060911C4070911D405A
S11304C080911E4090911F4028EE33E040E050E0C0
S11304D00E942705672B682B692B09F046C02091E1
S11304E013403091144080E19EE0289F6001299FD1
S11304F0D00C389FD00C1124E12CF12C60911C40BD
S113050070911D4080911E4090911F4028EE33E071
S113051040E050E00E942705C21AD30AE40AF50A13
S11305200F2EFCE38F2E912CA12CB12CF02DC701A2
S1130530B601A50194010E94270529013A01C701CA
S1130540B60120E13EE040E050E00E942705690149
S11305507A01C301B201A50194010E9427059B0100
S1130560AC01C701B6010E94A30180911340909190
S113057014404CE3489F9001499F300D1124809111
S1130580114090911240280F391FA0E6BAEE0E9444
S11305904905C0901C40D0901D40E0901E40F09052
S11305A01F40C616D706E806F906C8F081E0809316
S11305B01A408093204010921C4010921D401092CB
S11305C01E4010921F40109210401092134010923F
S11305D01440109211401092124010921B4081E07E
S11305E080934B0AFF91EF91BF91AF919F918F91AF
S11305F07F916F915F914F913F912F91FF90EF9079
S1130600DF90CF90BF90AF909F908F907F906F902E
S11306105F904F900F900BBE0F900FBE0F901F90E6
S113062018951F920F920FB60F9211240BB60F92CA
S11306302F933F934F935F936F937F938F939F93E6
S1130640AF93BF93EF93FF938091280482FD27C05B
S113065010921B40109210401092134010921440BC
S1130660109211401092124010921C4010921D40A2
S113067010921E4010921F40109219402091114078
S11306803091124040E050E060911340709114406A
S113069080E090E00E94A30181E080931A4084E00E
S11306A080932904FF91EF91BF91AF919F918F9116
S11306B07F916F915F914F913F912F910F900BBE5E
S11306C00F900FBE0F901F9018951F920F920FB6A8
S11306D00F9211240BB60F922F933F934F935F9376
S11306E06F937F938F939F93AF93BF93EF93FF93F6
S11306F08091080483FD14C080911B40811110C0B7
S113070080911040823050F4809110408F5F80932C
S11307101040109217401092184002C010921040DE
S113072080911B40811102C00E949B0088E380934A
S11307300904FF91EF91BF91AF919F918F917F91A8
S11307406F915F914F913F912F910F900BBE0F903E
S11307500FBE0F901F901895E0E4FAE091E09083AB
S113076080818860808329EF30E026A337A39287B5
S1130770089582E080934104E0E2F4E084E082831F
S11307808BE0828B08950E940D050E941B050E9438
S1130790AC030E94B9030E944C010E945C0178944E
S11307A081E080931A400E9462018091104082305F
S11307B040F58091104081110FC02091114030917B
S11307C0124040E050E0609113407091144080E08A
S11307D090E00E94A30112C080911040813071F416
S11307E0209111403091124040E050E0609113405C
S11307F07091144080E090E00E94A3010E94710176
S1130800D2CF80911040823071F6E0901C40F0907D
S11308101D4000911E4010911F40209111403091C5
S1130820124040E050E0609113407091144080E029
S113083090E00E94BC01B7CF1F920F920FB60F92A7
S113084011240BB60F922F933F934F936F937F9383
S11308508F939F93AF93BF93EF93FF938FE0809316
S1130860860440912140413031F138F0423009F49E
S113087056C0433009F485C0ACC020912240309169
S11308802340369527953695279536952795A5ECDB
S1130890B0E20E94490524E0209385049295829554
S11308A08F7089279F708927FC01E050F04C80816C
S11308B0809364048EC02091224030912340369569
S11308C0279536952795ABE7B4E10E944905FC01CD
S11308D0F695E7959F01ADECBCEC0E944905969511
S11308E0879596958795969587959C01220F331F3A
S11308F0880F991F880F991F880F991F820F931FC4
S11309009F01281B390BC90122E0209385049927F4
S1130910FC01E050F04C8081809364045AC0209123
S1130920224030912340ADECBCEC0E944905FC010F
S1130930F695E795F695E795F695E7959F010E945C
S113094049059695879596958795969587959C01E3
S1130950220F331F880F991F880F991F880F991F23
S1130960820F931F9F01281B390BC90121E020939B
S113097085049927FC01E050F04C80818093640445
S113098028C0E0912240F09123409F01ADECBCECE3
S11309900E9449059695879596958795969587958E
S11309A09C01220F331F880F991F880F991F880FEE
S11309B0991F820F931F9F01281B390BC90128E03F
S11309C0209385049927FC01E050F04C80818093AA
S11309D06404842F90E0019683709078992324F422
S11309E001978C6F9F6F019680932140E0E0FAE0BD
S11309F0838581608387FF91EF91BF91AF919F9130
S1130A008F917F916F914F913F912F910F900BBEDA
S1130A100F900FBE0F901F901895E0E0FAE081E070
S1130A20828782E190E086A397A38EE08083808111
S1130A308160808308958FEF809361048FE08093B9
S1130A408104089580932240909323400895A1E265
S1130A501A2EAA1BBB1BFD010DC0AA1FBB1FEE1F34
S1130A60FF1FA217B307E407F50720F0A21BB30B7F
S1130A70E40BF50B661F771F881F991F1A9469F7FB
S1130A8060957095809590959B01AC01BD01CF0157
S1130A900895A29FB001B39FC001A39F700D811D53
S1130AA01124911DB29F700D811D1124911D089573
S1130AB00E944905A59F900DB49F900DA49F800DA1
S10D0AC0911D11240895F894FFCF4E
S1130ACAED056B2F87AEEE25EFAFE7CEE84FEAE2EE
S9030000FC
